:100000000202A6E88FF0A4CC8BF0A42CFCE98EF0C1
:10001000A42CFC8AF0EDA42CFCEA8EF0A4CDA8F070
:100020008BF0A42DCC3825F0FDE98FF0A42CCD3534
:10003000F0FCEB8EF0A4FEA9F0EB8FF0A4CFC5F09E
:100040002ECD39FEE43CFCEAA42DCE35F0FDE43C97
:10005000FC2275F008758200EF2FFFEE33FECD33E2
:10006000CDCC33CCC58233C5829BED9AEC99E58229
:1000700098400CF582EE9BFEED9AFDEC99FC0FD5B5
:10008000F0D6E4CEFBE4CDFAE4CCF9A88222B800A5
:10009000C1B90059BA002DEC8BF084CFCECDFCE570
:1000A000F0CBF97818EF2FFFEE33FEED33FDEC3394
:1000B000FCEB33FB10D703994004EB99FB0FD8E519
:1000C000E4F9FA227818EF2FFFEE33FEED33FDEC62
:1000D00033FCC933C910D7059BE99A4007EC9BFC58
:1000E000E99AF90FD8E0E4C9FAE4CCFB2275F010E4
:1000F000EF2FFFEE33FEED33FDCC33CCC833C81009
:10010000D7079BEC9AE899400AED9BFDEC9AFCE836
:1001100099F80FD5F0DAE4CDFBE4CCFAE4C8F92283
:10012000E8600FECC313FCED13FDEE13FEEF13FFBD
:10013000D8F122ECF0A3EDF0A3EEF0A3EFF022D083
:1001400083D082F8E4937012740193700DA3A3938B
:10015000F8740193F5828883E473740293B5F00612
:100160007403936860E9A3A3A3A380D89000091245
:100170000133E4F591F591538EF7F5915389F043EE
:1001800089017B407A42790FF8900009E0FCA3E0F6
:10019000FDA3E0FEA3E0FF12008EA804A905AA06B5
:1001A000AB0790000FE0FEA3E0FFE4FCFD120003AC
:1001B000E47B0CFAF9F812008EC374FF9FFF74FF02
:1001C0009EFEE49DFDE49CFCEFE4900011EFF07BCB
:1001D000407A42790F7800900009E0FCA3E0FDA38B
:1001E000E0FEA3E0FF12008EA804A905AA06AB0753
:1001F00090000FE0FEA3E0FFE4FCFD120003E47BAF
:100200000CFAF9F812008EC374FF9FFF74FF9EFE74
:10021000E49DFDE49CFC780812012090000DE07044
:1002200002A3E06024900011E0F58A8F8C438810CF
:10023000308DFD5388DF5388EF90000EE024FFF0EF
:1002400090000DE034FFF080D2E4F58AF58C22E4D2
:10025000F591F5B1F5B2F5B3F5B4759102F589F5FF
:100260008AF591F5ACF5ADD2B390000DE4F0A3742E
:10027000C8F0A37403F0A374E8F07F007E247DF43B
:100280007C0012016CC2B390000DE4F0A374C8F0BE
:10029000A37403F0A374E8F07F007E247DF47C0057
:1002A00012016C80C222787FE4F6D8FD9000007FB6
:1002B000FF7E03E4F0A3DFFCDEFA75819002024FBB
:00000001FF
