:020000040000FA
:10000000F0060020F500000015010000D9000000F6
:1000100000000000000000000000000000000000E0
:1000200000000000000000000000000019010000B6
:1000300000000000000000001B0100001D01000086
:100040001F0100001F0100001F0100001F01000030
:100050001F0100001F0100001F0100001F01000020
:10006000710500001F0100001F0100001F010000BA
:10007000FD0500001F0100001F0100001F0100001E
:100080001F0100001F0100001F0100001F010000F0
:100090001F0100001F0100001F0100001F010000E0
:1000A0001F0100001F0100001F0100001F010000D0
:1000B0001F0100001F0100001F0100001F010000C0
:1000C0000448854600F094F8004800479D1600005B
:1000D000C046C046F006002004207146084202D007
:1000E000EFF3098001E0EFF308807146004A104702
:1000F000590300000A480B4901600B4901600B4994
:1001000001600B4A0B491160002101600A488047D9
:100110000A480047FEE7FEE7FEE7FEE7FEE7FEE7E8
:100120000001005059000000160000008800000087
:1001300024000050A55A0000C5040000C1000000C2
:1001400030B50B46014600202022012409E00D466F
:10015000D5409D4205D31D469540491B25469540F7
:1001600040191546521E002DF1DC30BD03460B43ED
:100170009B0703D009E008C9121F08C0042AFAD25D
:1001800003E00B780370401C491C521EF9D27047E3
:10019000F0B51FB40646002082B005464024019108
:1001A00000901BE0019922460F46304600F042F8CD
:1001B000049A059B801A994110D31046194622468D
:1001C00000F028F8361A8F410197224601200021BD
:1001D000009F00F01FF838184D4100902046641E23
:1001E0000028DFDC019B00982946324607B0F0BDAD
:1001F000064C0125064E05E0E36807CC2B430C3C7A
:1002000098471034B442F7D3FFF75EFFE41B0000B9
:10021000041C000010B5202A04DB0146203A91405E
:10022000002010BD914020239C1A0346E34019434F
:10023000904010BD10B5202A04DB0846203AD0407B
:10024000002110BD0B46D340D0402024A21A91407B
:100250000843194610BD000008B511A000680090C1
:100260001048016A0013014201D0002008BD0803B4
:1002700001D50D4800E00D488A03F7D40A04920F17
:100280006B469B5CCA058904D20DC90E891C800887
:10029000921C59435043FFF753FF800008BD0000F4
:1002A000010202040002005000805101001BB7004F
:1002B00010B504460749084B05E00A46491E002AC6
:1002C00001DC002010BDDA6820469043F5D1012002
:1002D00010BD0000804F120000020050F0B5002356
:1002E00001273C469C400C4208D005685C00032670
:1002F000A640B5431646A640354305605B1C082B57
:10030000EFD3F0BD12490A681248002A03D1C2781F
:1003100001231A43C2704A68002A03D1C27802231B
:100320001A43C2700A69002A03D1C27804231A430F
:10033000C2704A69002A03D1C27808231A43C270E6
:100340008969002903D1C17810221143C170704717
:100350000042005010000020044603A000F052FAB2
:10036000204601F0B3FBFEE7496E2048617264202D
:100370004661756C742048616E646C65720A000099
:1003800010B5164C20680421084320601020FFF7A8
:100390008FFF07202061206AE10108432062104896
:1003A00020620D20FFF784FF1A2020610D48A06015
:1003B0000D48606100F03EF805200007016B0B4A14
:1003C00011400163016BD243114301630848016886
:1003D000084A114001600168016010BD0002005030
:1003E000395608000400010000070001F3F3FFFF85
:1003F000400000503F3FFFFF0521020E0907511842
:100400008B680122824013438B6088689043886028
:100410007047000006498A691202FCD40A2804D1F8
:100420000D220A608A691202FCD40860704700003D
:1004300000000540F8B51C4D286944071BA0006862
:100440000090296A640F2813014201D0002016E0B1
:10045000080301D5164800E016488A030FD40A04A1
:10046000920F6B469B5CCA058904D20DC90E891C8C
:100470008008921C59435043FFF762FE80000E4EE5
:10048000022CB06002D00D49A0000858A9690907E4
:10049000090F491CFFF754FE094930604A108018C3
:1004A000FFF74EFE7060F8BD00020050010202042A
:1004B00000805101001BB70000000020741B0000E9
:1004C00040420F007047000010B588B0044620225B
:1004D00012496846FFF74AFE114912488C4202D180
:1004E0004069000A0DE00E4920318C4202D140697A
:1004F000000B06E00C4940698C4201D1000C00E081
:10050000000D4007400F022804D0800069460858BB
:1005100008B010BD05480068FAE70000C41B0000E1
:1005200000000140000200500000114000000020C7
:10053000F7B517460646FFF7C7FF054600244008F3
:10054000B84201D2022008E039462846FFF7F8FDFC
:10055000040E02D0611CFFF7F3FD019921433160C5
:100560007060641C604301462846FFF7E9FDFEBD4C
:10057000F8B51D488168C907C90F17D001278760E2
:1005800000F0CAFA00F034FC00F09EFD00F008FF15
:10059000164CA0690025002809D0E069401CE061E4
:1005A000E069042802D9E561A5616561F8BDE078DC
:1005B0000128FBD10E4EF7610E4801F05DF825626F
:1005C0000A4F643707E0206A395C0BA000F01AF983
:1005D000206A401C2062206A0C28F4D3656105481B
:1005E00001F04AF8F561F8BD00000140100000205C
:1005F00000420050A08601002563000000B500F015
:1006000053F800BD10B50448FFF7F6FE4B21490230
:10061000024800F005F810BD10000004000005407D
:10062000F0B504461C480D460FC885B06E460FC68F
:100630001A48416980698A010321960F0005070F56
:1006400000202063E160A06815490840A060012EE9
:1006500002D1FFF701FE0190002D1BD0B1006846CA
:100660004058791CFFF76CFD06466908401829467A
:10067000FFF766FD0B49801E884207D9E900701814
:100680002946FFF75DFD0009801E02E003210907EE
:100690000843606205B0F0BD941B000000020050EA
:1006A0000FFFF0FFFFFF0000F8B55148C069009050
:1006B000C00500274F4E504D00287ADB7DE00068D2
:1006C000C4B2A869012853D1686934546869012803
:1006D00012D1032C10D0832C0CD12878401E287006
:1006E0002878400068706878C01CA8702878424953
:1006F0006431C872AF616F616869022804D168789B
:10070000844201D0AF616F61A869012802D1686994
:10071000401C68616869A978884229D1AF616F611E
:10072000E87841004018E9784018401E287128797F
:10073000401C68716879401CA871A879401CE87158
:100740006879305C01F05AF92879305C01F086F85C
:10075000E879305C01F0EAF8A879305C01F016F82D
:1007600000F06AFA00F0D4FB00F03EFD00F0A8FEB5
:10077000012C09D1A869002806D1686934540120E8
:10078000A8616869401C6861A868012189028842E3
:100790000FD21A482969445429691948814202D163
:1007A000002002E005E02869401C2861A868401C80
:1007B000A8600F48C169C90781D10098800515D587
:1007C0002869E96880B2814210D0E86808488169E8
:1007D0000902FCD4E9680A48814201D1002001E005
:1007E000E868401CE860A868401EA860F8BD0000EA
:1007F0000000054080040020100000208000002040
:10080000FF0300000FB410B503A9044B044A02987B
:1008100000F018F810BC08BC04B01847911600008E
:100820000C00002002E008C8121F08C1002AFAD1FB
:1008300070477047002001E001C1121F002AFBD160
:1008400070470000FFB58FB00F460446002606E053
:1008500025280AD0129A11999047641C761C20789A
:100860000028F5D1304613B0F0BD002501219F4A84
:10087000009500E00543641C23780846203B98401F
:100880001042F7D120782E2815D104200543607836
:10089000641C2A280AD101CF641C00900BE0009947
:1008A0000A22514330394018641C009020780146D8
:1008B00030390929F3D920786C280ED004DC4C2873
:1008C00013D06A2812D104E074280ED07A280DD1F2
:1008D0000BE001204005054307E00121090562788E
:1008E0000D43824201D16D18641C641C2078692874
:1008F00049D008DC0028B5D058286CD063280FD028
:10090000642808D13FE070286AD0732811D0752878
:100910005FD078285FD0129A11999047761CE3E057
:100920003878694608720020487202A801900120B8
:1009300003E0386801900020C0433F1D69070CD5D3
:10094000002500E06D1C00998D420FDA8542F9DB2D
:100950000199495D0029F5D108E0002500E06D1CF2
:100960008542FCDB0199495D0029F8D1761907E041
:10097000019801990078491C0191129A11999047A8
:100980006D1EF5D2B0E00A20029000216802400FEF
:10099000039102280CD001CFC117844600290DDA3B
:1009A00060460A4640420021914184462D2008E0DD
:1009B000FF1DFF08FF0003CF8446EFE7280504D59D
:1009C0002B206A46107401203DE0E8073BD0202030
:1009D000F7E70A2000E0102000210391029007E0D1
:1009E000102002900021042005430820039100906C
:1009F0006802400F022811D001CF00218446002058
:100A00000D90280720D52078864670280CD0029AB1
:100A10001020039B42401A430CD015E0FF1DFF0835
:100A2000FF0003CF8446EAE740206A4610740120A5
:100A30000D900CE06046084306D030206A461074E2
:100A40007046507402200D902078582804D028A0B9
:100A500001900DA80E900DE02AA0F9E76046039BD7
:100A6000029AFFF795FB019B84469B5C0E9A521EEF
:100A70000E92137060460843F0D10E9805A9081A2B
:100A800020300190680701D401200090009901985E
:100A9000814201DD081A00E000200025009006E0F8
:100AA00004A8129A405D119990476D1C761C0D9810
:100AB0008542F5DB04E0129A302011999047761CAC
:100AC0000099481E00900029F5DC08E00E980E9968
:100AD0000078491C0E91129A11999047761C019941
:100AE000481E01900029F1DC641CB8E609280100C9
:100AF0003031323334353637383961626364656694
:100B00000000000030313233343536373839414255
:100B1000434445460000000010B5454B1C780121B8
:100B200000224448012C06D01C78002C05D01C78EB
:100B3000052C04D006E0016204E0026202E0046ACF
:100B4000E44304625C78012C06D05C78002C05D06C
:100B50005C78052C04D006E0416204E0426202E0C9
:100B6000446AE44344629C78012C06D09C78002CB3
:100B700005D09C78052C04D006E0816204E08262F6
:100B800002E0846AE4438462DC78012C06D0DC78DD
:100B9000002C05D0DC78052C04D006E0C16204E00E
:100BA000C26202E0C46AE443C4621C79012C06D02C
:100BB0001C79002C05D01C79052C04D006E00163BB
:100BC00004E0026302E0046BE44304635C79012CFB
:100BD00006D05C79002C05D05C79052C04D006E0A9
:100BE000416304E0426302E0446BE44344639C7964
:100BF000012C06D09C79002C05D09C79052C04D0C2
:100C000006E0816304E0826302E0846BE443846372
:100C1000DC79012C07D0D979002906D0D9790529AA
:100C200002D1C16BC943C16310BDC26310BD0000D6
:100C3000540000200042005070B56C4D28788006AA
:100C4000800E28702E7828460121002202230524D8
:100C500020303F2E09D02E78002E08D00678761C42
:100C600006700678012E04D004E0017006E00270E0
:100C700004E003700678062E00D104706E78B60684
:100C8000B60E6E706E783F2E09D06E78002E08D0AA
:100C90004678761C46704678012E04D004E04170F8
:100CA00006E0427004E043704678062E00D144709E
:100CB000AE78B606B60EAE70AE783F2E09D0AE78DE
:100CC000002E08D08678761C86708678012E04D097
:100CD00004E0817006E0827004E083708678062E5E
:100CE00000D18470EE78B606B60EEE70EE783F2E28
:100CF00009D0EE78002E08D0C678761CC670C6786B
:100D0000012E04D004E0C17006E0C27004E0C3709C
:100D1000C678062E00D1C4702E79B606B60E2E7196
:100D20002E793F2E09D02E79002E08D00679761C18
:100D300006710679012E04D004E0017106E002710B
:100D400004E003710679062E00D104716E79B606AF
:100D5000B60E6E716E793F2E09D06E79002E08D0D6
:100D60004679761C46714679012E04D004E0417123
:100D700006E0427104E043714679062E00D14471C9
:100D8000AE79B606B60EAE71AE793F2E09D0AE7909
:100D9000002E08D08679761C86718679012E04D0C3
:100DA00004E0817106E0827104E083718679062E89
:100DB00000D18471EE79B606B60EEE71EE793F2E53
:100DC00009D0E979002908D0C179491CC171C179DC
:100DD000012904D004E0C17170BDC27170BDC3713E
:100DE000C1790629FAD1C47170BD00003400002019
:100DF00010B5454B1C78012100224448012C06D037
:100E00001C78002C05D01C78052C04D006E001606D
:100E100004E0026002E00468E44304605C78012CB2
:100E200006D05C78002C05D05C78052C04D006E058
:100E3000416004E0426002E04468E44344609C781E
:100E4000012C06D09C78002C05D09C78052C04D071
:100E500006E0816004E0826002E08468E44384602C
:100E6000DC78012C06D0DC78002C05D0DC78052C51
:100E700004D006E0C16004E0C26002E0C468E4435C
:100E8000C4601C79012C06D01C79002C05D01C797B
:100E9000052C04D006E0016104E0026102E004696F
:100EA000E44304615C79012C06D05C79002C05D008
:100EB0005C79052C04D006E0416104E0426102E067
:100EC0004469E44344619C79012C06D09C79002C50
:100ED00005D09C79052C04D006E0816104E0826194
:100EE00002E08469E4438461DC79012C07D0D9797C
:100EF000002906D0D979052902D1C169C943C16148
:100F000010BDC26110BD00005C00002040420050D6
:100F100070B56C4D28788006800E28702E78284693
:100F2000012100220223052420303F2E09D02E78F3
:100F3000002E08D00678761C06700678012E04D0A4
:100F400004E0017006E0027004E003700678062EEB
:100F500000D104706E78B606B60E6E706E783F2EB5
:100F600009D06E78002E08D04678761C46704678F8
:100F7000012E04D004E0417006E0427004E04370AA
:100F80004678062E00D14470AE78B606B60EAE7026
:100F9000AE783F2E09D0AE78002E08D08678761C29
:100FA00086708678012E04D004E0817006E082709D
:100FB00004E083708678062E00D18470EE78B60641
:100FC000B60EEE70EE783F2E09D0EE78002E08D0E7
:100FD000C678761CC670C678012E04D004E0C170B5
:100FE00006E0C27004E0C370C678062E00D1C4705B
:100FF0002E79B606B60E2E712E793F2E09D02E7997
:10100000002E08D00679761C06710679012E04D0D0
:1010100004E0017106E0027104E003710679062E16
:1010200000D104716E79B606B60E6E716E793F2EE0
:1010300009D06E79002E08D04679761C4671467923
:10104000012E04D004E0417106E0427104E04371D6
:101050004679062E00D14471AE79B606B60EAE7151
:10106000AE793F2E09D0AE79002E08D08679761C55
:1010700086718679012E04D004E0817106E08271C8
:1010800004E083718679062E00D18471EE79B6066C
:10109000B60EEE71EE793F2E09D0E979002908D01D
:1010A000C179491CC171C179012904D004E0C17121
:1010B00070BDC27170BDC371C1790629FAD1C47106
:1010C00070BD00003C00002010B5454B1C7801218C
:1010D00000224448012C06D01C78002C05D01C7836
:1010E000052C04D006E0016204E0026202E0046A1A
:1010F000E44304625C78012C06D05C78002C05D0B7
:101100005C78052C04D006E0416204E0426202E013
:10111000446AE44344629C78012C06D09C78002CFD
:1011200005D09C78052C04D006E0816204E0826240
:1011300002E0846AE4438462DC78012C06D0DC7827
:10114000002C05D0DC78052C04D006E0C16204E058
:10115000C26202E0C46AE443C4621C79012C06D076
:101160001C79002C05D01C79052C04D006E0016305
:1011700004E0026302E0046BE44304635C79012C45
:1011800006D05C79002C05D05C79052C04D006E0F3
:10119000416304E0426302E0446BE44344639C79AE
:1011A000012C06D09C79002C05D09C79052C04D00C
:1011B00006E0816304E0826302E0846BE4438463BD
:1011C000DC79012C07D0D979002906D0D9790529F5
:1011D00002D1C16BC943C16310BDC26310BD000021
:1011E000640000204042005070B56C4D28788006A5
:1011F000800E28702E782846012100220223052423
:1012000020303F2E09D02E78002E08D00678761C8C
:1012100006700678012E04D004E0017006E002702A
:1012200004E003700678062E00D104706E78B606CE
:10123000B60E6E706E783F2E09D06E78002E08D0F4
:101240004678761C46704678012E04D004E0417042
:1012500006E0427004E043704678062E00D14470E8
:10126000AE78B606B60EAE70AE783F2E09D0AE7828
:10127000002E08D08678761C86708678012E04D0E1
:1012800004E0817006E0827004E083708678062EA8
:1012900000D18470EE78B606B60EEE70EE783F2E72
:1012A00009D0EE78002E08D0C678761CC670C678B5
:1012B000012E04D004E0C17006E0C27004E0C370E7
:1012C000C678062E00D1C4702E79B606B60E2E71E1
:1012D0002E793F2E09D02E79002E08D00679761C63
:1012E00006710679012E04D004E0017106E0027156
:1012F00004E003710679062E00D104716E79B606FA
:10130000B60E6E716E793F2E09D06E79002E08D020
:101310004679761C46714679012E04D004E041716D
:1013200006E0427104E043714679062E00D1447113
:10133000AE79B606B60EAE71AE793F2E09D0AE7953
:10134000002E08D08679761C86718679012E04D00D
:1013500004E0817106E0827104E083718679062ED3
:1013600000D18471EE79B606B60EEE71EE793F2E9D
:1013700009D0E979002908D0C179491CC171C17926
:10138000012904D004E0C17170BDC27170BDC37188
:10139000C1790629FAD1C47170BD00004400002053
:1013A00010B5454B1C78012100224448012C06D081
:1013B0001C78002C05D01C78052C04D006E00160B8
:1013C00004E0026002E00468E44304605C78012CFD
:1013D00006D05C78002C05D05C78052C04D006E0A3
:1013E000416004E0426002E04468E44344609C7869
:1013F000012C06D09C78002C05D09C78052C04D0BC
:1014000006E0816004E0826002E08468E443846076
:10141000DC78012C06D0DC78002C05D0DC78052C9B
:1014200004D006E0C16004E0C26002E0C468E443A6
:10143000C4601C79012C06D01C79002C05D01C79C5
:10144000052C04D006E0016104E0026102E00469B9
:10145000E44304615C79012C06D05C79002C05D052
:101460005C79052C04D006E0416104E0426102E0B1
:101470004469E44344619C79012C06D09C79002C9A
:1014800005D09C79052C04D006E0816104E08261DE
:1014900002E08469E4438461DC79012C07D0D979C6
:1014A000002906D0D979052902D1C169C943C16192
:1014B00010BDC26110BD00006C00002080420050D1
:1014C00070B56C4D28788006800E28702E782846DE
:1014D000012100220223052420303F2E09D02E783E
:1014E000002E08D00678761C06700678012E04D0EF
:1014F00004E0017006E0027004E003700678062E36
:1015000000D104706E78B606B60E6E706E783F2EFF
:1015100009D06E78002E08D04678761C4670467842
:10152000012E04D004E0417006E0427004E04370F4
:101530004678062E00D14470AE78B606B60EAE7070
:10154000AE783F2E09D0AE78002E08D08678761C73
:1015500086708678012E04D004E0817006E08270E7
:1015600004E083708678062E00D18470EE78B6068B
:10157000B60EEE70EE783F2E09D0EE78002E08D031
:10158000C678761CC670C678012E04D004E0C170FF
:1015900006E0C27004E0C370C678062E00D1C470A5
:1015A0002E79B606B60E2E712E793F2E09D02E79E1
:1015B000002E08D00679761C06710679012E04D01B
:1015C00004E0017106E0027104E003710679062E61
:1015D00000D104716E79B606B60E6E716E793F2E2B
:1015E00009D06E79002E08D04679761C467146796E
:1015F000012E04D004E0417106E0427104E0437121
:101600004679062E00D14471AE79B606B60EAE719B
:10161000AE793F2E09D0AE79002E08D08679761C9F
:1016200086718679012E04D004E0817106E0827112
:1016300004E083718679062E00D18471EE79B606B6
:10164000B60EEE71EE793F2E09D0E979002908D067
:10165000C179491CC171C179012904D004E0C1716B
:1016600070BDC27170BDC371C1790629FAD1C47150
:1016700070BD00004C000020044900220A620A6A82
:10168000824202D20A6A521CF8E77047100000201A
:1016900000B50346FEF7BEFE184600BD59201621D0
:1016A000324C882202E02060216022602368012BF6
:1016B000F9D1FEF765FE00262660FEF7A3FF2C4C4D
:1016C000022291062046FEF733FF2068610308439B
:1016D0002060284D48152860206849000843206094
:1016E000254C002273212046FEF7F8FD01228021BF
:1016F0002046FEF7F3FD20480122FF214030FEF78F
:10170000EDFD1D480122FF218030FEF7E7FD1A485C
:101710000122FF21C030FEF7E1FD0122FF21174821
:10172000FEF7DCFD1648C661FEF7ECFD002000F078
:1017300065F9002000F092F8002000F0F7F8002092
:1017400000F024F80F480178490041704178C91C25
:10175000817000780B496431C8720B4841681322CC
:1017600011434160012000032860FEE700010050A2
:101770000000014000E100E0004000500041005046
:1017800000420050100000200000054018B5C107BD
:10179000C90F6B461970304A1178490011701B78D7
:1017A0000121002B02D013780B4313700223034056
:1017B0006C46237053785B0053702378002B02D063
:1017C00053780B43537004230340237093785B00DA
:1017D00093702378002B02D093780B4393700823E7
:1017E00003402370D3785B00D3702378002B02D0A2
:1017F000D3780B43D37010230340237013795B001D
:1018000013712378002B02D013790B43137120231B
:101810000340237053795B0053712378002B02D06F
:1018200053790B43537140230340237093795B003A
:1018300093712378002B02D093790B439371C009E5
:10184000C0012070D0794000D0712078002802D0EB
:10185000D0790843D07118BD3400002018B5C107F5
:10186000C90F6B461970304A1178490011701B7806
:101870000121002B02D013780B4313700223034085
:101880006C46237053785B0053702378002B02D092
:1018900053780B43537004230340237093785B0009
:1018A00093702378002B02D093780B439370082316
:1018B00003402370D3785B00D3702378002B02D0D1
:1018C000D3780B43D37010230340237013795B004C
:1018D00013712378002B02D013790B43137120234B
:1018E0000340237053795B0053712378002B02D09F
:1018F00053790B43537140230340237093795B006A
:1019000093712378002B02D093790B439371C00914
:10191000C0012070D0794000D0712078002802D01A
:10192000D0790843D07118BD3C00002018B5C1071C
:10193000C90F6B461970304A1178490011701B7835
:101940000121002B02D013780B43137002230340B4
:101950006C46237053785B0053702378002B02D0C1
:1019600053780B43537004230340237093785B0038
:1019700093702378002B02D093780B439370082345
:1019800003402370D3785B00D3702378002B02D000
:10199000D3780B43D37010230340237013795B007B
:1019A00013712378002B02D013790B43137120237A
:1019B0000340237053795B0053712378002B02D0CE
:1019C00053790B43537140230340237093795B0099
:1019D00093712378002B02D093790B439371C00944
:1019E000C0012070D0794000D0712078002802D04A
:1019F000D0790843D07118BD4400002018B5C10744
:101A0000C90F6B461970304A1178490011701B7864
:101A10000121002B02D013780B43137002230340E3
:101A20006C46237053785B0053702378002B02D0F0
:101A300053780B43537004230340237093785B0067
:101A400093702378002B02D093780B439370082374
:101A500003402370D3785B00D3702378002B02D02F
:101A6000D3780B43D37010230340237013795B00AA
:101A700013712378002B02D013790B4313712023A9
:101A80000340237053795B0053712378002B02D0FD
:101A900053790B43537140230340237093795B00C8
:101AA00093712378002B02D093790B439371C00973
:101AB000C0012070D0794000D0712078002802D079
:101AC000D0790843D07118BD4C00002010B50446F1
:101AD000016810A0FEF796FE11A06168FEF792FE65
:101AE00012A0A168FEF78EFE13A0E168FEF78AFE41
:101AF00014A02169FEF786FE15A06169FEF782FE3B
:101B000016A0A169FEF77EFE17A0E169FEF77AFE36
:101B100010BD0000723020203D20307825780A006A
:101B2000723120203D20307825780A007232202042
:101B30003D20307825780A00723320203D2030780F
:101B400025780A00723132203D20307825780A004D
:101B50006C7220203D20307825780A0070632020A8
:101B60003D20307825780A00707372203D2030784F
:101B700025780A00001BB7000000000080F0FA0280
:101B8000102700000000000000000000000000001E
:101B900000805101001BB7000000000000000000A1
:101BA00000805101001BB700000000000000000091
:101BB00000805101001BB700000000000000000081
:101BC00000805101001BB700000000000000000071
:101BD00000000000000000001027000000000000CE
:101BE00000805101041C0000000000208000000063
:101BF00024080000841C0000800000207006000003
:101C00003408000080F0FA023200000080F0FA028E
:101C10000000000034686B000000000000000000BD
:101C200000000000000000000000000000000000B4
:101C300000000000000000000000000000000000A4
:101C40000000000000000000000000000000000094
:101C50000000000000000000000000000000000084
:101C60000000000000000000000000000000000074
:101C70000000000000000000000100000006010359
:041C8000000100342B
:04000005000000F502
:00000001FF
