:020000040000FA
:10000000D0060020F500000015010000D900000016
:1000100000000000000000000000000000000000E0
:1000200000000000000000000000000019010000B6
:1000300000000000000000001B0100001D01000086
:100040001F0100001F0100001F0100001F01000030
:100050001F0100001F0100001F0100001F01000020
:10006000710500001F0100001F0100001F010000BA
:10007000FD0500001F0100001F0100001F0100001E
:100080001F0100001F0100001F0100001F010000F0
:100090001F0100001F0100001F0100001F010000E0
:1000A0001F0100001F0100001F0100001F010000D0
:1000B0001F0100001F0100001F0100001F010000C0
:1000C0000448854600F094F800480047A90F000056
:1000D000C046C046D006002004207146084202D027
:1000E000EFF3098001E0EFF308807146004A104702
:1000F000590300000A480B4901600B4901600B4994
:1001000001600B4A0B491160002101600A488047D9
:100110000A480047FEE7FEE7FEE7FEE7FEE7FEE7E8
:100120000001005059000000160000008800000087
:1001300024000050A55A0000C5040000C1000000C2
:1001400030B50B46014600202022012409E00D466F
:10015000D5409D4205D31D469540491B25469540F7
:1001600040191546521E002DF1DC30BD03460B43ED
:100170009B0703D009E008C9121F08C0042AFAD25D
:1001800003E00B780370401C491C521EF9D27047E3
:10019000F0B51FB40646002082B005464024019108
:1001A00000901BE0019922460F46304600F042F8CD
:1001B000049A059B801A994110D31046194622468D
:1001C00000F028F8361A8F410197224601200021BD
:1001D000009F00F01FF838184D4100902046641E23
:1001E0000028DFDC019B00982946324607B0F0BDAD
:1001F000064C0125064E05E0E36807CC2B430C3C7A
:1002000098471034B442F7D3FFF75EFFF0140000B4
:100210001015000010B5202A04DB0146203A914059
:10022000002010BD914020239C1A0346E34019434F
:10023000904010BD10B5202A04DB0846203AD0407B
:10024000002110BD0B46D340D0402024A21A91407B
:100250000843194610BD000008B511A000680090C1
:100260001048016A0013014201D0002008BD0803B4
:1002700001D50D4800E00D488A03F7D40A04920F17
:100280006B469B5CCA058904D20DC90E891C800887
:10029000921C59435043FFF753FF800008BD0000F4
:1002A000010202040002005000805101001BB7004F
:1002B00010B504460749084B05E00A46491E002AC6
:1002C00001DC002010BDDA6820469043F5D1012002
:1002D00010BD0000804F120000020050F0B5002356
:1002E00001273C469C400C4208D005685C00032670
:1002F000A640B5431646A640354305605B1C082B57
:10030000EFD3F0BD12490A681248002A03D1C2781F
:1003100001231A43C2704A68002A03D1C27802231B
:100320001A43C2700A69002A03D1C27804231A430F
:10033000C2704A69002A03D1C27808231A43C270E6
:100340008969002903D1C17810221143C170704717
:100350000042005010000020044603A000F048FABC
:10036000204601F039F8FEE7496E204861726420AA
:100370004661756C742048616E646C65720A000099
:1003800010B5164C20680421084320601020FFF7A8
:100390008FFF07202061206AE10108432062104896
:1003A00020620D20FFF784FF1A2020610D48A06015
:1003B0000D48606100F03EF805200007016B0B4A14
:1003C00011400163016BD243114301630848016886
:1003D000084A114001600168016010BD0002005030
:1003E000395608000400010000070001F3F3FFFF85
:1003F000400000503F3FFFFF0521020E0907511842
:100400008B680122824013438B6088689043886028
:100410007047000006498A691202FCD40A2804D1F8
:100420000D220A608A691202FCD40860704700003D
:1004300000000540F8B51C4D286944071BA0006862
:100440000090296A640F2813014201D0002016E0B1
:10045000080301D5164800E016488A030FD40A04A1
:10046000920F6B469B5CCA058904D20DC90E891C8C
:100470008008921C59435043FFF762FE80000E4EE5
:10048000022CB06002D00D49A0000858A9690907E4
:10049000090F491CFFF754FE094930604A108018C3
:1004A000FFF74EFE7060F8BD00020050010202042A
:1004B00000805101001BB7000000002080140000E4
:1004C00040420F007047000010B588B0044620225B
:1004D00012496846FFF74AFE114912488C4202D180
:1004E0004069000A0DE00E4920318C4202D140697A
:1004F000000B06E00C4940698C4201D1000C00E081
:10050000000D4007400F022804D0800069460858BB
:1005100008B010BD05480068FAE70000D0140000DC
:1005200000000140000200500000114000000020C7
:10053000F7B517460646FFF7C7FF054600244008F3
:10054000B84201D2022008E039462846FFF7F8FDFC
:10055000040E02D0611CFFF7F3FD019921433160C5
:100560007060641C604301462846FFF7E9FDFEBD4C
:10057000F8B51D488168C907C90F17D001278760E2
:1005800000F0C0FA00F04EFB00F0DCFB00F06AFC6B
:10059000164CA0690025002809D0E069401CE061E4
:1005A000E069042802D9E561A5616561F8BDE078DC
:1005B0000128FBD10E4EF7610E4800F0E3FC2562E6
:1005C0000A4F443707E0206A395C0BA000F010F9AD
:1005D000206A401C2062206A0C28F4D3656105481B
:1005E00000F0D0FCF561F8BD0000014010000020D3
:1005F00000420050A08601002563000000B500F015
:1006000053F800BD10B50448FFF7F6FE4B21490230
:10061000024800F005F810BD10000004000005407D
:10062000F0B504461C480D460FC885B06E460FC68F
:100630001A48416980698A010321960F0005070F56
:1006400000202063E160A06815490840A060012EE9
:1006500002D1FFF701FE0190002D1BD0B1006846CA
:100660004058791CFFF76CFD06466908401829467A
:10067000FFF766FD0B49801E884207D9E900701814
:100680002946FFF75DFD0009801E02E003210907EE
:100690000843606205B0F0BDA014000000020050E5
:1006A0000FFFF0FFFFFF0000F8B54C48C069009055
:1006B000C00500274A4E4B4D002871DB74E00068EE
:1006C000C4B2A86901284BD168693454686901280B
:1006D00012D1032C10D0832C0CD12878401E287006
:1006E0002878400068706878C01CA87028783D4958
:1006F0004431C872AF616F616869022804D16878BB
:10070000844201D0AF616F61A869012802D1686994
:10071000401C68616869A978884221D1AF616F6126
:10072000E87841004018E9784018401E287128797F
:10073000401C68716879401CA871A879401CE87158
:100740006879305C00F0E0FD2879305C00F00CFD49
:10075000E879305C00F070FDA879305C00F09CFC1A
:10076000012C09D1A869002806D1686934540120F8
:10077000A8616869401C6861A868012189028842F3
:100780000ED219482969445429691848814201D177
:10079000002001E02869401C2861A868401CA8606E
:1007A0000E48C169C9078AD10098800515D5286906
:1007B000E96880B2814210D0E8680848816909027E
:1007C000FCD4E9680948814201D1002001E0E868D1
:1007D000401CE860A868401EA860F8BD0000054005
:1007E000600400201000002060000020FF030000D3
:1007F0000FB410B503A9044B044A029800F018F88E
:1008000010BC08BC04B018479D0F00000C0000206D
:1008100002E008C8121F08C1002AFAD170477047C9
:10082000002001E001C1121F002AFBD17047000027
:10083000FFB58FB00F460446002606E025280AD0F3
:10084000129A11999047641C761C20780028F5D1E3
:10085000304613B0F0BD002501219F4A009500E00D
:100860000543641C23780846203B98401042F7D18A
:1008700020782E2815D1042005436078641C2A288E
:100880000AD101CF641C00900BE000990A22514369
:1008900030394018641C009020780146303909290D
:1008A000F3D920786C280ED004DC4C2813D06A28A9
:1008B00012D104E074280ED07A280DD10BE001206B
:1008C0004005054307E00121090562780D43824296
:1008D00001D16D18641C641C2078692849D008DC9B
:1008E0000028B5D058286CD063280FD0642808D1D0
:1008F0003FE070286AD0732811D075285FD078281F
:100900005FD0129A11999047761CE3E038786946D7
:1009100008720020487202A80190012003E03868A4
:1009200001900020C0433F1D69070CD5002500E061
:100930006D1C00998D420FDA8542F9DB0199495D02
:100940000029F5D108E0002500E06D1C8542FCDBA4
:100950000199495D0029F8D1761907E001980199BC
:100960000078491C0191129A119990476D1EF5D299
:10097000B0E00A20029000216802400F0391022893
:100980000CD001CFC117844600290DDA60460A4613
:1009900040420021914184462D2008E0FF1DFF08C0
:1009A000FF0003CF8446EFE7280504D52B206A46D5
:1009B000107401203DE0E8073BD02020F7E70A2033
:1009C00000E0102000210391029007E01020029027
:1009D0000021042005430820039100906802400F85
:1009E000022811D001CF0021844600200D90280755
:1009F00020D52078864670280CD0029A1020039BC0
:100A000042401A430CD015E0FF1DFF08FF0003CF42
:100A10008446EAE740206A46107401200D900CE0FD
:100A20006046084306D030206A4610747046507401
:100A300002200D902078582804D028A001900DA8FD
:100A40000E900DE02AA0F9E76046039B029AFFF79B
:100A50009FFB019B84469B5C0E9A521E0E92137064
:100A600060460843F0D10E9805A9081A203001907D
:100A7000680701D40120009000990198814201DDAE
:100A8000081A00E000200025009006E004A8129A51
:100A9000405D119990476D1C761C0D988542F5DBE1
:100AA00004E0129A302011999047761C0099481E54
:100AB00000900029F5DC08E00E980E990078491C9A
:100AC0000E91129A11999047761C0199481E019037
:100AD0000029F1DC641CB8E609280100303132330A
:100AE000343536373839616263646566000000006A
:100AF0003031323334353637383941424344454654
:100B00000000000010B5454B18780007000F187062
:100B10001C780121002242480F2C61D01C78002C47
:100B200060D0046AE44304625C782407240F5C709C
:100B30005C780F2C58D05C78002C57D0446AE44382
:100B400044629C782407240F9C709C780F2C4FD013
:100B50009C78002C4ED0846AE4438462DC782407BD
:100B6000240FDC70DC780F2C46D0DC78002C45D0CC
:100B7000C46AE443C4621C792407240F1C711C79E5
:100B80000F2C3DD01C79002C3CD0046BE443046353
:100B90005C792407240F5C715C790F2C34D05C796C
:100BA000002C33D0446BE44344639C792407240F26
:100BB0009C719C790F2C2BD09C79002C2AD0846BB3
:100BC000E4438463DC792407240FDC71DC790F2C87
:100BD00004D0D97900291FD0C16BC943C16310BDAE
:100BE0000162A1E702629FE74162AAE74262A8E7C9
:100BF0008162B3E78262B1E7C162BCE7C262BAE771
:100C00000163C5E70263C3E74163CEE74263CCE714
:100C10008163D7E78263D5E7C26310BD340000204B
:100C20000042005010B5454B18780007000F1870AF
:100C30001C780121002242480F2C61D01C78002C26
:100C400060D00468E44304605C782407240F5C707F
:100C50005C780F2C58D05C78002C57D04468E44363
:100C600044609C782407240F9C709C780F2C4FD0F4
:100C70009C78002C4ED08468E4438460DC782407A0
:100C8000240FDC70DC780F2C46D0DC78002C45D0AB
:100C9000C468E443C4601C792407240F1C711C79C8
:100CA0000F2C3DD01C79002C3CD00469E443046136
:100CB0005C792407240F5C715C790F2C34D05C794B
:100CC000002C33D04469E44344619C792407240F09
:100CD0009C719C790F2C2BD09C79002C2AD0846994
:100CE000E4438461DC792407240FDC71DC790F2C68
:100CF00004D0D97900291FD0C169C943C16110BD91
:100D00000160A1E702609FE74160AAE74260A8E7AF
:100D10008160B3E78260B1E7C160BCE7C260BAE757
:100D20000161C5E70261C3E74161CEE74261CCE7FB
:100D30008161D7E78261D5E7C26110BD3C00002028
:100D40004042005010B5454B18780007000F18704E
:100D50001C780121002242480F2C61D01C78002C05
:100D600060D0046AE44304625C782407240F5C705A
:100D70005C780F2C58D05C78002C57D0446AE44340
:100D800044629C782407240F9C709C780F2C4FD0D1
:100D90009C78002C4ED0846AE4438462DC7824077B
:100DA000240FDC70DC780F2C46D0DC78002C45D08A
:100DB000C46AE443C4621C792407240F1C711C79A3
:100DC0000F2C3DD01C79002C3CD0046BE443046311
:100DD0005C792407240F5C715C790F2C34D05C792A
:100DE000002C33D0446BE44344639C792407240FE4
:100DF0009C719C790F2C2BD09C79002C2AD0846B71
:100E0000E4438463DC792407240FDC71DC790F2C44
:100E100004D0D97900291FD0C16BC943C16310BD6B
:100E20000162A1E702629FE74162AAE74262A8E786
:100E30008162B3E78262B1E7C162BCE7C262BAE72E
:100E40000163C5E70263C3E74163CEE74263CCE7D2
:100E50008163D7E78263D5E7C26310BD44000020F9
:100E60004042005010B5454B18780007000F18702D
:100E70001C780121002242480F2C61D01C78002CE4
:100E800060D00468E44304605C782407240F5C703D
:100E90005C780F2C58D05C78002C57D04468E44321
:100EA00044609C782407240F9C709C780F2C4FD0B2
:100EB0009C78002C4ED08468E4438460DC7824075E
:100EC000240FDC70DC780F2C46D0DC78002C45D069
:100ED000C468E443C4601C792407240F1C711C7986
:100EE0000F2C3DD01C79002C3CD00469E4430461F4
:100EF0005C792407240F5C715C790F2C34D05C7909
:100F0000002C33D04469E44344619C792407240FC6
:100F10009C719C790F2C2BD09C79002C2AD0846951
:100F2000E4438461DC792407240FDC71DC790F2C25
:100F300004D0D97900291FD0C169C943C16110BD4E
:100F40000160A1E702609FE74160AAE74260A8E76D
:100F50008160B3E78260B1E7C160BCE7C260BAE715
:100F60000161C5E70261C3E74161CEE74261CCE7B9
:100F70008161D7E78261D5E7C26110BD4C000020D6
:100F800080420050044900220A620A6A824202D268
:100F90000A6A521CF8E770471000002000B50346AB
:100FA000FFF738FA184600BD59201621324C882226
:100FB00002E02060216022602368012BF9D1FFF755
:100FC000DFF900202060FFF71DFB2C4C0222910668
:100FD0002046FFF7ADFA2068610308432060012630
:100FE000274D481528602068490008432060254C9B
:100FF000002273212046FFF771F90122802120464B
:10100000FFF76CF91F480122FF214030FFF766F916
:101010001C480122FF218030FFF760F919480122A6
:10102000FF21C030FFF75AF90122FF211648FFF7D0
:1010300055F91648C661FFF765F9002000F064F91C
:10104000002000F091F8002000F0F6F8002000F0F9
:1010500023F80F480178490041704178C91C81701C
:1010600000780B494431C8720A4841681322114381
:10107000416030032860FEE700010050000001409D
:1010800000E100E0004000500041005000420050EC
:10109000100000200000054018B5C107C90F6B46BD
:1010A0001970304A1178490011701B780121002B0A
:1010B00002D013780B431370022303406C46237055
:1010C00053785B0053702378002B02D053780B4386
:1010D000537004230340237093785B00937023784C
:1010E000002B02D093780B439370082303402370A6
:1010F000D3785B00D3702378002B02D0D3780B43D6
:10110000D37010230340237013795B00137123788D
:10111000002B02D013790B4313712023034023705B
:1011200053795B0053712378002B02D053790B4322
:10113000537140230340237093795B0093712378AC
:10114000002B02D093790B439371C009C00120702A
:10115000D0794000D0712078002802D0D07908439F
:10116000D07118BD3400002018B5C107C90F6B46F7
:101170001970304A1178490011701B780121002B39
:1011800002D013780B431370022303406C46237084
:1011900053785B0053702378002B02D053780B43B5
:1011A000537004230340237093785B00937023787B
:1011B000002B02D093780B439370082303402370D5
:1011C000D3785B00D3702378002B02D0D3780B4305
:1011D000D37010230340237013795B0013712378BD
:1011E000002B02D013790B4313712023034023708B
:1011F00053795B0053712378002B02D053790B4352
:10120000537140230340237093795B0093712378DB
:10121000002B02D093790B439371C009C001207059
:10122000D0794000D0712078002802D0D0790843CE
:10123000D07118BD3C00002018B5C107C90F6B461E
:101240001970304A1178490011701B780121002B68
:1012500002D013780B431370022303406C462370B3
:1012600053785B0053702378002B02D053780B43E4
:10127000537004230340237093785B0093702378AA
:10128000002B02D093780B43937008230340237004
:10129000D3785B00D3702378002B02D0D3780B4334
:1012A000D37010230340237013795B0013712378EC
:1012B000002B02D013790B431371202303402370BA
:1012C00053795B0053712378002B02D053790B4381
:1012D000537140230340237093795B00937123780B
:1012E000002B02D093790B439371C009C001207089
:1012F000D0794000D0712078002802D0D0790843FE
:10130000D07118BD4400002018B5C107C90F6B4645
:101310001970304A1178490011701B780121002B97
:1013200002D013780B431370022303406C462370E2
:1013300053785B0053702378002B02D053780B4313
:10134000537004230340237093785B0093702378D9
:10135000002B02D093780B43937008230340237033
:10136000D3785B00D3702378002B02D0D3780B4363
:10137000D37010230340237013795B00137123781B
:10138000002B02D013790B431371202303402370E9
:1013900053795B0053712378002B02D053790B43B0
:1013A000537140230340237093795B00937123783A
:1013B000002B02D093790B439371C009C0012070B8
:1013C000D0794000D0712078002802D0D07908432D
:1013D000D07118BD4C00002010B50446016810A063
:1013E000FFF706FA11A06168FFF702FA12A0A168E0
:1013F000FFF7FEF913A0E168FFF7FAF914A02169DD
:10140000FFF7F6F915A06169FFF7F2F916A0A169D7
:10141000FFF7EEF917A0E169FFF7EAF910BD000048
:10142000723020203D20307825780A00723120204B
:101430003D20307825780A00723220203D20307817
:1014400025780A00723320203D20307825780A0064
:10145000723132203D20307825780A006C722020CD
:101460003D20307825780A00706320203D203078B8
:1014700025780A00707372203D20307825780A00A4
:10148000001BB7000000000080F0FA0210270000E7
:10149000000000000000000000000000008051017A
:1014A000001BB70000000000000000000080510198
:1014B000001BB70000000000000000000080510188
:1014C000001BB70000000000000000000080510178
:1014D000001BB7000000000000000000000000003A
:1014E00000000000102700000000000000805101F3
:1014F000101500000000002060000000100800002F
:101500007015000060000020700600002008000038
:1015100080F0FA023200000080F0FA0200000000C1
:1015200034686B00000000000000000000000000B4
:1015300000000000000000000000000000000000AB
:10154000000000000000000000000000000000009B
:10155000000000000000000000000000000000008B
:10156000000000000001000000060103000100343B
:04000005000000F502
:00000001FF
