:0A000000020623C091C28DD0913298
:08000B00020003C100C1010065
:100023000206BDC0E0C083C082C09130F80B53F814
:10003300FE90000BE59AF0D20230F906200003533C
:10004300F8FDD091D082D083D0E032C091E4F59115
:10005300EF14600E047014C2998D9920990D80FBE2
:0E0063008009C2F9AF058F9A20F9FDD09122D5
:10007B00020026900000120328E4F591900004E0A2
:10008B00146054147003020170240260030201F720
:10009B00759850438920438780E4F591438E10F582
:1000AB009153C4DF7B10FAF9F8900000E0FCA3E059
:1000BB00FDA3E0FEA3E0FF120283900005E0F8A38E
:1000CB00E0F9A3E0FAA3E0FB120283EFF404F58D51
:1000DB0043884043A8102275985043878053C4F837
:1000EB00E4F59143C4207B10FAF9F8900000E0FC92
:1000FB00A3E0FDA3E0FEA3E0FF120283900005E066
:10010B00F8A3E0F9A3E0FAA3E0FB120283C3E49F98
:10011B00FFE49EFE74019DFDE49CFC780812031520
:10012B008FC6E47B10FAF9F8900000E0FCA3E0FD29
:10013B00A3E0FEA3E0FF120283900005E0F8A3E02A
:10014B00F9A3E0FAA3E0FB120283C3E49FFFE49E52
:10015B00FE74019DFDE49CFCEFE48FC5F59143C457
:10016B000843A8102275F85075C480E47B10FAF987
:10017B00F8900000E0FCA3E0FDA3E0FEA3E0FF127B
:10018B000283900005E0F8A3E0F9A3E0FAA3E0FBFB
:10019B00120283C3E49FFFE49EFE74019DFDE49C69
:1001AB00FC78081203158FC6E47B10FAF9F890005F
:1001BB0000E0FCA3E0FDA3E0FEA3E0FF12028390AE
:1001CB000005E0F8A3E0F9A3E0FAA3E0FB12028339
:1001DB00C3E49FFFE49EFE74019DFDE49CFCEFE4F1
:1001EB008FC5F59143C408F591439C0122E88FF02C
:1001FB00A4CC8BF0A42CFCE98EF0A42CFC8AF0EDA3
:10020B00A42CFCEA8EF0A4CDA8F08BF0A42DCC3856
:10021B0025F0FDE98FF0A42CCD35F0FCEB8EF0A48E
:10022B00FEA9F0EB8FF0A4CFC5F02ECD39FEE43C48
:10023B00FCEAA42DCE35F0FDE43CFC2275F00875EC
:10024B008200EF2FFFEE33FECD33CDCC33CCC58206
:10025B0033C5829BED9AEC99E58298400CF582EEC2
:10026B009BFEED9AFDEC99FC0FD5F0D6E4CEFBE4AA
:10027B00CDFAE4CCF9A88222B800C1B90059BA0072
:10028B002DEC8BF084CFCECDFCE5F0CBF97818EFCD
:10029B002FFFEE33FEED33FDEC33FCEB33FB10D7CE
:1002AB0003994004EB99FB0FD8E5E4F9FA2278188F
:1002BB00EF2FFFEE33FEED33FDEC33FCC933C910EA
:1002CB00D7059BE99A4007EC9BFCE99AF90FD8E01C
:1002DB00E4C9FAE4CCFB2275F010EF2FFFEE33FEEE
:1002EB00ED33FDCC33CCC833C810D7079BEC9AE861
:1002FB0099400AED9BFDEC9AFCE899F80FD5F0DAE2
:10030B00E4CDFBE4CCFAE4C8F922E8600FECC313AC
:10031B00FCED13FDEE13FEEF13FFD8F122ECF0A36F
:10032B00EDF0A3EEF0A3EFF022A8828583F0D0834B
:10033B00D08212034B12034B12034B12034BE47389
:10034B00E493A3C583C5F0C583C8C582C8F0A3C514
:10035B0083C5F0C583C8C582C822E4F591EF24F9A3
:10036B00600C14600E2402700D75A638800875A6FB
:10037B0030800375A630E4F591A2AF9203C2AF753E
:10038B00C7AA75C755439F01A20392AFF5A775AFD7
:10039B0004F591A2AF9203C2AF75C7AA75C75543B7
:1003AB00A401A20392AF85AE0805A6F591A2AF9268
:1003BB0003C2AF75C7AA75C75543A401A20392AF79
:1003CB0085AE09EF24F86003020465E50825E0FF1C
:1003DB00E433FEE50954017C002FFFEC3EFEAD0734
:1003EB00ED54C0F50BED543FF50A74F22FFF74FF7B
:1003FB003EFE75AF0C75A601E4F5A7F591A2AF9281
:10040B0003C2AF75C7AA75C75543A401A20392AF28
:10041B00ADAEED644B600EADAEED64526007ADAEAC
:10042B00ED6453702EC3E50A940F74809480501BB7
:10043B00AD0BED6440600AED64806005ED64C07047
:10044B001274F22FFF74FF3EFE800874FC2FFF74B2
:10045B00FF3EFEEEC313EF13F50875C7AA75C7551C
:10046B0085088475C7AA75C755850985E4F591A2DA
:10047B00AF9203C2AF75C7AA75C755539FFEA203B0
:10048B0092AF5387EF22900000120328A2AF920382
:10049B00E4F5915389F0438901F591538EF743A805
:1004AB0002D2AF900008F0A3F0900004E0FEA3E0AE
:1004BB00FFC3900009E09F900008E09E40030205F7
:1004CB007E7B407A42790F7800900000E0FCA3E03D
:1004DB00FDA3E0FEA3E0FF120283A804A905AA0670
:1004EB00AB07900006E0FEA3E0FFE4FCFD1201F871
:1004FB00E47B0CFAF9F8120283C374FF9FFF74FFBD
:10050B009EFEE49DFDE49CFCEFE48F8A7B407A42E7
:10051B00790FF8900000E0FCA3E0FDA3E0FEA3E060
:10052B00FF120283A804A905AA06AB07900006E0F8
:10053B00FEA3E0FFE4FCFD1201F8E47B0CFAF9F8F2
:10054B00120283C374FF9FFF74FF9EFEE49DFDE4C4
:10055B009CFC78081203158F8C438810308DFD534B
:10056B0088EF900009E004F07006900008E004F0BA
:10057B000204B453A8FDA20392AF227F06120365B7
:10058B00E4F59153ACDF53ADDFF59153B1BF43B2FB
:10059B0040F59143B18053B27F90000404F0A31255
:1005AB0003340001C2007F007E367D6E7C01120099
:1005BB007E43A810D2AF7D05E4FF12004E900004DD
:1005CB00E4F0A37464F0A37403F0A374E8F07F0069
:1005DB007E367D6E7C01120491D2B5900004E4F05E
:1005EB00A37464F0A37403F0A374E8F07F007E3669
:1005FB007D6E7C01120491C2B5900004E4F0A374EB
:10060B0064F0A37403F0A374E8F07F007E367D6E74
:10061B007C01120491809F22787FE4F6D8FD900034
:10062B00007FFF7E03E4F0A3DFFCDEFA758120027E
:10063B000678020586E493A3F8E493A34003F680BF
:10064B0001F208DFF48029E493A3F85407240CC8C3
:10065B00C333C4540F4420C8834004F4568001466E
:10066B00F6DFE4800B010204081020408090000E9E
:10067B00E47E019360BCA3FF543F30E509541FFE99
:10068B00E493A360010ECF54C025E060A840B8E40A
:10069B0093A3FAE493A3F8E493A3C8C582C8CAC58D
:1006AB0083CAF0A3C8C582C8CAC583CADFE9DEE71F
:1006BB0080BEC0E0C083C082C09130980BD2019045
:1006CB00000AE599F05398FED091D082D083D0E008
:0106DB0032EC
:00000001FF
